S01F00006275696C645F6D783871785F62302F736366775F74636D2E737265631A
S3151FFE000000F00120FD02FE1F4904FE1F5D04FE1FB8
S3151FFE00107104FE1F8504FE1F9904FE1F00000000CB
S3151FFE0020000000000000000000000000D304FE1FB9
S3151FFE0030D304FE1F00000000D304FE1FD304FE1FC1
S3151FFE0040A112FE1FA112FE1FA112FE1FA112FE1F4D
S3151FFE0050A112FE1FAD04FE1FC913FE1FD304FE1FF2
S3151FFE0060D304FE1FA112FE1FD304FE1FD304FE1FC1
S3151FFE0070D304FE1FD304FE1FD304FE1FD304FE1F8D
S3151FFE0080D304FE1FD304FE1FA112FE1FD304FE1FA1
S3151FFE0090A112FE1FA112FE1FC104FE1FA112FE1FEB
S3151FFE00A0A112FE1FD304FE1FA112FE1FD304FE1FA5
S3151FFE00B0A112FE1FD304FE1FD304FE1FD304FE1F71
S3151FFE00C0D304FE1FD304FE1FD304FE1FD304FE1F3D
S3151FFE00D0D304FE1FD304FE1FD304FE1FD304FE1F2D
S3151FFE00E0D304FE1FD304FE1F1572FF1F1577FE1FB7
S3151FFE00F0D304FE1FD304FE1FD304FE1FF52CFF1FC2
S3151FFE0100D304FE1FD304FE1F2114FE1FA112FE1FC2
S3151FFE0110D304FE1FD304FE1FD304FE1FD304FE1FEC
S3151FFE0120D304FE1FD304FE1F8570FF1F25A9FE1FC6
S3151FFE0130D304FE1F192DFF1FD304FE1F39A9FE1F51
S3151FFE01409514FE1FD304FE1FD304FE1FD304FE1FEA
S3151FFE0150D304FE1FD304FE1FD304FE1FBD14FE1FB2
S3151FFE0160D304FE1FD304FE1FA914FE1FF914FE1F80
S3151FFE0170D114FE1FD304FE1FD304FE1FD304FE1F7E
S3151FFE0180D304FE1FD304FE1FD304FE1FD304FE1F7C
S3151FFE01900D15FE1FD304FE1FE514FE1FD304FE1FFF
S3151FFE01A0D304FE1FD304FE1FD304FE1FD304FE1F5C
S3151FFE01B02115FE1FD304FE1FD304FE1FD304FE1FED
S3151FFE01C0D304FE1FD304FE1FD304FE1FD304FE1F3C
S3151FFE01D0D304FE1FD304FE1FD304FE1FD304FE1F2C
S3151FFE01E0D304FE1FD304FE1FD304FE1FD304FE1F1C
S3151FFE01F0D304FE1FD304FE1FD304FE1FD304FE1F0C
S3151FFE0200D304FE1FD304FE1FD304FE1FE115FE1FDC
S3151FFE0210D915FE1FD115FE1FC915FE1FC115FE1FBF
S3151FFE0220B915FE1FB115FE1FA915FE1FA115FE1F2F
S3151FFE02309915FE1F9115FE1F8915FE1F8115FE1F9F
S3151FFE02401F21FE1FFFFFFFFFFFFFFFFFFFFFFFFF3A
S3151FFE0250000000000000000000000000000000007B
S3151FFE0260000000000000000000000000000000006B
S3151FFE0270000000000000000000000000000000005B
S3151FFE02802DE9F047B1E8F807A0E8F807B1E8F80747
S3151FFE0290A0E8F807403AF5D1BDE8F087AFF3008036
S3151FFE02A0026042608260C260026142618261C26117
S3151FFE02B0026242628262C262026342638263C263F7
S3151FFE02C040308842ECDB7047AFF30080AFF300800F
S3151FFE02D0026042608260C2600261426182611C30BE
S3151FFE02E08842F5DB704700BFAFF30080AFF3008097
S3151FFE02F00260426008308842FADB70474148424935
S3151FFE030002688A6241484FF0806141604048414918
S3151FFE031041604FF40041816042F2E21101603E48A6
S3151FFE03204FF00841016072B63C483D490022FFF777
S3151FFE0330B7FF35484FF000010160416039484FF065
S3151FFE03400541016001684900FCD24FF002010160C0
S3151FFE035000BF00BF00BF00BFBFF36F8F32484FF015
S3151FFE03600541016001684900FCD24FF002010160A0
S3151FFE037000BF00BF00BF00BFBFF36F8F2B484FF0FC
S3151FFE0380000141604FF01001C160294901612949F1
S3151FFE0390C160294901614FF01201C1604FF0000192
S3151FFE03A001614FF01301C1604FF0000101614FF073
S3151FFE03B01401C1604FF0000101614FF01501C160CC
S3151FFE03C04FF0000101614FF01601C1604FF00001B1
S3151FFE03D001611A4941F01701C1601949194A41EADB
S3151FFE03E0020101614FF00501416000F011FB00F0B3
S3151FFE03F06FFA62B600F074F801F086F900F090FE0F
S3151FFE0400FEE7000008000040C0CF01200005824124
S3151FFE04100000424120C528D94023FC4100E80120A7
S3151FFE042000F00120002008E0002808E090ED00E023
S3151FFE04303D030103110000803DC0070300E00120BC
S3151FFE044001000010140000001EF0040F0CBFEFF396
S3151FFE04500880EFF3098000F033BF00BF1EF0040FC4
S3151FFE04600CBFEFF30880EFF3098000F0C5BA00BF9B
S3151FFE04701EF0040F0CBFEFF30880EFF3098000F0A8
S3151FFE0480C5BA00BF1EF0040F0CBFEFF30880EFF3D3
S3151FFE0490098000F0B9BA00BF1EF0040F0CBFEFF3C0
S3151FFE04A00880EFF3098000F0A9BA00BF1EF0040F03
S3151FFE04B00CBFEFF30880EFF3098000F07BBF00BF90
S3151FFE04C01EF0040F0CBFEFF30880EFF3098000F058
S3151FFE04D0BBBF00F0E5BE00BF00000000000000002D
S3151FFE04E000B517F06DFE5DF804EB704700000000C7
S3151FFE04F001F0FF01102A2BDB10F0070F08D010F8B2
S3151FFE0500013B013A8B422DD010F0070F42B3F6D1B5
S3151FFE0510F0B441EA012141EA014122F007047FF0CE
S3151FFE052000070023F0E80256083C85EA010586EA25
S3151FFE0530010685FA47F5A3FA87F586FA47F6A5FA61
S3151FFE054087F68EB9EED1F0BC01F0FF0102F007026D
S3151FFE055032B110F8013B013A83EA010313B1F8D118
S3151FFE05600020704701387047002D06BF35460338F9
S3151FFE0570073815F0010F07D1013015F4807F02BF32
S3151FFE0580013015F4C03F0130F0BC0138704700BF83
S3151FFE0590034613F8012B002AFBD1181A01387047A0
S3151FFE05A0D0400B1CD1409C46203AD34018435242A2
S3151FFE05B063469340184370479140031C90409C46E8
S3151FFE05C0203A9340194352426346D340194370471C
S3151FFE05D053B94AB9002908BF00281CBF4FF0FF3187
S3151FFE05E04FF0FF3000F072B9ADF1080C6DE904CE85
S3151FFE05F000F006F8DDF804E0DDE9022304B07047DB
S3151FFE06002DE9F047089E04468846002B4BD18A42A9
S3151FFE0610154667D9B2FA82F24AB1C2F1200701FA2C
S3151FFE062002F320FA07F7954047EA030894404FEA7C
S3151FFE0630154E230CB8FBFEF71FFA85FC0EFB17881B
S3151FFE064043EA084307FB0CF1994209D9EB1807F158
S3151FFE0650FF3080F01B81994240F21881023F2B44E6
S3151FFE06605B1AA4B2B3FBFEF00EFB103344EA03443F
S3151FFE067000FB0CFCA44509D92C1900F1FF3380F0B1
S3151FFE06800781A44540F2048102382C4440EA074004
S3151FFE0690A4EB0C0400271EB1D4400023C6E9004379
S3151FFE06A03946BDE8F0878B4209D9002E00F0EB8054
S3151FFE06B00027C6E9000138463946BDE8F087B3FA7A
S3151FFE06C083F7002F47D18B4202D3824200F2FA8074
S3151FFE06D0841A61EB030301209846002EE0D0C6E97B
S3151FFE06E00048DDE702B9FFDEB2FA82F2002A40F0C9
S3151FFE06F08F80491B4FEA154E1FFA85F80127B1FB5E
S3151FFE0700FEFC230C0EFB1C1143EA014308FB0CF1F6
S3151FFE0710994207D9EB180CF1FF3002D2994200F22B
S3151FFE0720CD808446591AA3B2B1FBFEF00EFB101400
S3151FFE073043EA044408FB00F8A04507D92C1900F12B
S3151FFE0740FF3302D2A04500F2B6801846A4EB08047A
S3151FFE075040EA0C409FE7C7F1200CBB4022FA0CFE75
S3151FFE07604EEA030E01FA07F420FA0CF521FA0CF3F2
S3151FFE07704FEA1E482543B3FBF8F92C0C08FB193329
S3151FFE07801FFA8EFA44EA034309FB0AF49C4202FA55
S3151FFE079007F200FA07F10BD91EEB030309F1FF302F
S3151FFE07A080F087809C4240F28480A9F1020973443F
S3151FFE07B01B1BADB2B3FBF8F008FB103345EA03442F
S3151FFE07C000FB0AFAA24508D91EEB040400F1FF330B
S3151FFE07D06BD2A24569D90238744440EA0940A0FB90
S3151FFE07E00289A4EB0A044C45C2464B4654D351D04C
S3151FFE07F0002E69D0B1EB0A0564EB030404FA0CFC68
S3151FFE0800FD40FC404CEA0505C6E90054002747E7B4
S3151FFE0810C2F1200320FA03F7954001FA02F021FAEE
S3151FFE082003F34FEA154E3843010CB3FBFEF71FFACF
S3151FFE083085F80EFB173341EA034107FB08F38B428C
S3151FFE084004FA02F407D9691807F1FF3C2FD28B422F
S3151FFE08502DD9023F2944CB1A81B2B3FBFEF00EFB04
S3151FFE0860103341EA034100FB08F38B4207D969188F
S3151FFE087000F1FF3C17D28B4215D902382944C91AFB
S3151FFE088040EA07473BE73746304609E70746E7E6AE
S3151FFE08901846FBE64145ABD2B8EB020A69EB0E02E0
S3151FFE08A001381346A4E76046E9E7184695E767460B
S3151FFE08B0D1E781467CE702382C4447E7ACF1020CB0
S3151FFE08C02B442FE7384608E73746E9E6704700BF51
S3151FFE08D01349144A914210B508461ED012490023E9
S3151FFE08E089088B4213D1114B98601149114A124840
S3151FFE08F0521AFFF7C5FC002210491148FFF7D0FC1C
S3151FFE0900002210491048BDE81040FFF7C9BC52F837
S3151FFE0910234040F823400133E3E7044B9960E4E7A5
S3151FFE09200000FE1F0000FE1F0000000000ED00E09D
S3151FFE0930C01A0020801D002000000120806C0120AF
S3151FFE0940C002012000E0012000D0012013B504469D
S3151FFE095001A90DF1030011F055FB20B1044B9C427A
S3151FFE096001D108F057FC034B1C6002B010BD00BF3F
S3151FFE097020EEFFC0F0FF0020064B5B68C3F30803A3
S3151FFE098033B9802383F31188BFF34F8FBFF36F8F66
S3151FFE0990704700BF00ED00E0054B5B68C3F308031D
S3151FFE09A02BB983F31188BFF34F8FBFF36F8F70473A
S3151FFE09B000ED00E0024B5868C0F30800704700BF09
S3151FFE09C000ED00E0094B1B68DA0710B5044608D593
S3151FFE09D000BE0748231A58425841BDE8104012F080
S3151FFE09E0EBB80448FFF7B2FFF3E700BFF0ED00E0F8
S3151FFE09F0C8CF012020EEFFC0FFF7E4BF014B9B6A65
S3151FFE0A00FFF7E0BF00ED00E0FFF7F8BFFFF7F6BF09
S3151FFE0A1085490B6813F0380F2DE9F04718BF0C6890
S3151FFE0A200B6814BFC4F3C2040224580718BF0D680F
S3151FFE0A307E494B6A43F4E0234B624B6943F018032E
S3151FFE0A404B61D1F8883043F47003C1F888308EB0FD
S3151FFE0A5014BF05F00705032508F0A6FD7449D1F856
S3151FFE0A600035002B4FEAC4144FEA0515C0F202816A
S3151FFE0A7004260823C1F848646E4AC1F84834F02399
S3151FFE0A804B63136843F0090313600A2141F21003F7
S3151FFE0A903246012005F08FFE334632460D210120D8
S3151FFE0AA005F089FE44F482332B43002203210120E5
S3151FFE0AB005F081FE604B32460321012005F07BFEC9
S3151FFE0AC004AB03215022012005F093FE049BD90798
S3151FFE0AD0F6D5402304220D210120554C574F05F014
S3151FFE0AE06AFE0D2130230422012005F064FE4FF419
S3151FFE0AF00063C4F804354F4B40F20F121A600125EE
S3151FFE0B000823FF2663634FF49070A363A761A66253
S3151FFE0B10C4F8045308F05CFD1D23C4F8085367612F
S3151FFE0B20666223634FF0FF3323640D23C4F81471EB
S3151FFE0B300922C4F824610021C4F830312846C4F8BE
S3151FFE0B401472C4F82462C4F830323D4B009506F089
S3151FFE0B5057F800210922284605F074FE394B4FF43B
S3151FFE0B6082721A6043F20443374AE25002F18062F0
S3151FFE0B70E250364B9F3A1A600223C4F8243584206E
S3151FFE0B8008F026FD0423C4F824354FF4047008F03C
S3151FFE0B901FFDC4F824552E4A2E4B1360244D2E4E90
S3151FFE0BA042F614420024AB502C4B1C6003F58033D7
S3151FFE0BB01C6003F580331C6003F580331C6006F052
S3151FFE0BC04BFD42F60843264AEA5003A90123254850
S3151FFE0BD08DF80D308DF80C4008F0A2F90FCE06AD3C
S3151FFE0BE00FC596E80F0085E80F0006A9082251F8E3
S3151FFE0BF024300134082C9A60F9D105A90DF10B009A
S3151FFE0C0011F000FA184B98420BD100231A46012108
S3151FFE0C10164806F017FC00231A460121144806F053
S3151FFE0C2011FC0EB0BDE8F0870018532000ED00E062
S3151FFE0C3000008241003C824101004000FFFF01008F
S3151FFE0C400048F13E00348241A3000040002C824141
S3151FFE0C5000308241010000404895FF1F00006041A1
S3151FFE0C6003000040000021410000224180300400A5
S3151FFE0C70C030040004AB00220321012005F0B9FD9C
S3151FFE0C80049A22F4433222F47C7242F482332343C3
S3151FFE0C902B43002203210120049305F08CFD06AB96
S3151FFE0CA060220021012005F0A4FD04AB30220021A5
S3151FFE0CB0012005F09EFD069C14F00C0402D1049B38
S3151FFE0CC0002B75DB4D4F4E4D4E4C43F2044609220B
S3151FFE0CD057F8068028F07E4343F02043BB512B680E
S3151FFE0CE023F040432B60236823F0404323600021FB
S3151FFE0CF0012005F0E5F809220021012005F0A2FDDD
S3151FFE0D002B6843F080432B60236843F080432360A8
S3151FFE0D1047F80680394D2B690493DA071AD43A4BE6
S3151FFE0D2001241C60052008F061FC384B05201C6061
S3151FFE0D3008F05CFC0220C5F8044308F057FCC5F812
S3151FFE0D400843052008F052FC314B1C60C3F80041D6
S3151FFE0D50C3F80042DFF8C080DFF8C090DFF8C0A0FE
S3151FFE0D600024264E336A0493E340DB071CD4012777
S3151FFE0D7007FA04F50520C8F8005008F037FC0520D1
S3151FFE0D80C9F8005008F032FC0220C6F8047308F0BA
S3151FFE0D902DFCC6F80873052008F028FC1D4BCAF863
S3151FFE0DA000501D60C3F800510134062CD9D1F2E65E
S3151FFE0DB004AB21465022012005F01BFD049B23F0A8
S3151FFE0DC0E07343F48003214650220120049305F06D
S3151FFE0DD0F2FC04AB21464022012005F00AFD049BCE
S3151FFE0DE023F4FF2343F4004343F00103402221462D
S3151FFE0DF00120049305F0DFFC8CE700BF0000824153
S3151FFE0E00002C824100308241180182411800824126
S3151FFE0E101400824124018241280182412800824119
S3151FFE0E2024008241234B9A684FF47A735A43D20B9E
S3151FFE0E305343A3F59C53204A10B5083B1F4C136022
S3151FFE0E400323236042F20F03636043F20F03A36083
S3151FFE0E501B4A43F21F03E3601368D2F800281343AD
S3151FFE0E60DB0721D5174B236123696361164BA361EC
S3151FFE0E700023236201206362A362E362236363632B
S3151FFE0E80A36323646364A364E3642365636511F04C
S3151FFE0E9041F9A065022011F03DF90C4B01280CBF4C
S3151FFE0EA0152211221A6010BD094B23612369636146
S3151FFE0EB0084BDCE700004241C80201200000074044
S3151FFE0EC0002008E01D3020001C303000C00201202B
S3151FFE0ED01D30A0001C30F0002DE9F74F834CFFF7A5
S3151FFE0EE04BFD23781BB9FFF79DFF01232370FFF7E9
S3151FFE0EF053FD04F0B9F90128054603D930BF03B0E7
S3151FFE0F00BDE8F08F72B6002003F0BEFA784A9368EA
S3151FFE0F1023F001039360774BA2F18D721B680DB907
S3151FFE0F2043F00203D36109F0B1FC07F0FBFB07F0A8
S3151FFE0F30FBFB032011F0EEF8012801BF6E4B4FF0AD
S3151FFE0F400042C3F884215A606C4B1A68022A18BFE6
S3151FFE0F50002201A90DF1030018BF1A6011F052F805
S3151FFE0F6008B108F057F965B9012011F0F5FD644B7C
S3151FFE0F700122C3F828250422C3F828250222C3F816
S3151FFE0F8028255F49DFF890915E4F43F20442012008
S3151FFE0F908E5826F07E4343F020438B5009220021B4
S3151FFE0FA004F08EFF00221146012006F0B5F8D9F88F
S3151FFE0FB00000DFF84C81DFF864B1534C06F08AFB64
S3151FFE0FC04FF0FF0A012006F06FFBC8F818B201208A
S3151FFE0FD0C8F828A202F0FEFF4C4A5760236943F069
S3151FFE0FE00403236130BF236923F004032361012019
S3151FFE0FF0576003F0CFF8C8F814B20020C8F824A231
S3151FFE1000646806F051FB424B0222C4F30834DA62CF
S3151FFE1010DA6A12F00402FBD1374B4FF400613B2C08
S3151FFE1020C3F88411C3D03B4B1B6893F85A30C3F3E6
S3151FFE1030C103022B54D101221146104606F06CF84D
S3151FFE104009220021012004F039FF2D4C43F20443EF
S3151FFE1050E65095B90223C4F82435842008F0B8FA61
S3151FFE10600423C4F824354FF4047008F0B1FA0123A3
S3151FFE1070C4F82435032011F06FFD07F065FB09F058
S3151FFE10801FFC07F0B9FA4FF4FA7014F061FD40F237
S3151FFE1090022014F05DFD40F2F51014F059FD40F2EA
S3151FFE10A0032014F055FD4FF4FB7014F051FD4FF461
S3151FFE10B0017014F04DFD002007F05AFC002010F0C1
S3151FFE10C0ABFF0B4A936843F0010393600A4B4FF045
S3151FFE10D08062C3F80421012003F0D6F962B60EE73B
S3151FFE10E0032BADD101210846A8E700BFC40201208C
S3151FFE10F000002141C002012000E100E0C0CF012017
S3151FFE11000000824102A680B400ED00E000004241CD
S3151FFE11100000024070D3FF1FC8020120FFFF01001F
S3151FFE112008B50448FFF712FC0020BDE8084011F081
S3151FFE113043BD00BF20EEFFC04FF08042136823F071
S3151FFE114001031360054A936943F002039361044B3F
S3151FFE11504FF48022C3F80421704700BF00002141CF
S3151FFE116000E100E04FF08042136843F00103136075
S3151FFE1170024A536943F0020353617047000021413F
S3151FFE118008F034BA704700003E4B1B681B0637B586
S3151FFE11901AD53D4C00216A4620468DF800108DF863
S3151FFE11A001108DF802108DF803108DF804108DF8BE
S3151FFE11B006108DF8051007F0E5FE49F6404323623B
S3151FFE11C0236943F0010323612F4D002401216A4643
S3151FFE11D028468DF802108DF800408DF801408DF8D7
S3151FFE11E003408DF804408DF806408DF8054007F044
S3151FFE11F0C9FE264B2B632B69254943F002032B6140
S3151FFE1200CA68244B22F4E0621204120C1343CB600D
S3151FFE1210214BC0211A190134802C82F80013F9D1F3
S3151FFE12201E490A6942F480120A610022202183F8B0
S3151FFE12300523196083F83B234FF000625A60902105
S3151FFE124040221A6083F816134FF480011960F021AD
S3151FFE125083F832134FF480215960012013465A0931
S3151FFE1260920002F1604203F01F0102F56142013353
S3151FFE127000FA01F1802BC2F880111160EFD103B085
S3151FFE128030BD00BF000042410000214180380100F1
S3151FFE129000ED00E00006FA0500E100E0000008E0B0
S3151FFE12A0EFF30583103B5A09012103F01F0301FAD1
S3151FFE12B003F32032014941F82230704700E100E076
S3151FFE12C0F0B5364B1B685D0489B0064618D5344B00
S3151FFE12D002689A604268DA6082681A61C2685A6159
S3151FFE12E002699A614269DA6182691A62C2695A6241
S3151FFE12F00AF012FF304609B0BDE8F040FFF762BBA9
S3151FFE1300284BD3F8107917F40077F3D1264BD3F871
S3151FFE13108824002A1ADAD3F8882412F0020F0CBF8B
S3151FFE13201346012312F4801F03F0010318BF012386
S3151FFE133012F4001F18BF012312F4800F18BF0123DA
S3151FFE13401402D7D4002BD5D109B0F0BD174D0FCD42
S3151FFE13506C460FC495E80F0084E80F00144C3A46FE
S3151FFE13603B465DF82200016BA1B10368110101EB3B
S3151FFE137053610368002314F83300C00706D504EB38
S3151FFE1380C300807900F03F00814202D00133112B4A
S3151FFE1390F1D101230132082AE3D1D3E700004241EE
S3151FFE13A0C0CF012000008241000008E06895FF1FA4
S3151FFE13B020A3FF1F034B1B69DB0601D5FFF702BBED
S3151FFE13C0704700BF000008E02DE9F843124BDFF817
S3151FFE13D04C80D3F81055D3F810369FB25D40ADB290
S3151FFE13E03E464FF0010926B90B4BC3F81C75BDE8E7
S3151FFE13F0F883B6FA86F4C4F11F04E4B258F8243013
S3151FFE140013B129462046984704F01F0409FA04F42F
S3151FFE141026EA0406E7E700BF000082415896FF1F33
S3151FFE142008B51A200BF061FD28B1064B4FF480223A
S3151FFE1430C3F8042108BDFFF795FE1A20BDE8084034
S3151FFE14400BF059BD00E100E008B50E4BDA68D10777
S3151FFE145004D50122DA600C4A0C495160DA689207FC
S3151FFE14600ED50222DA600A2011F078FC0A2015F04A
S3151FFE147095FD0A2003F040FF054A136801331360EA
S3151FFE148008BD00BF000021410000424102A680B4F4
S3151FFE1490CC020120024A034901200EF0BBB900BF50
S3151FFE14A010D6FF1F98F3FF1F024A034933200EF083
S3151FFE14B0B1B900BF78EDFF1F98F3FF1F024A03491C
S3151FFE14C01B200EF0A7B900BF2C09002098F3FF1FA3
S3151FFE14D0024A03491A200EF09DB900BF60F2FF1F94
S3151FFE14E098F3FF1F024A034924200EF093B900BF4B
S3151FFE14F018F4FF1F98F3FF1F024A034916200EF02A
S3151FFE150089B900BF18F4FF1F98F3FF1F024A03494C
S3151FFE151028200EF07FB900BF18F4FF1F98F3FF1F98
S3151FFE1520024A034913200EF075B900BFE0DDFF1F07
S3151FFE153098F3FF1FF8B501EB40131B0303F183431B
S3151FFE154003F5F00301EB4011D3F800648D0101276B
S3151FFE15502EB902210320BDE8F8400AF0A9BAB6FA51
S3151FFE156086F4C4F11F04E4B2601904F01F040021BF
S3151FFE1570800107FA04F406F02BF826EA0406E7E7CD
S3151FFE158000210846FFF7D6BF00210120FFF7D2BF75
S3151FFE159001210846FFF7CEBF02210120FFF7CABF72
S3151FFE15A003210120FFF7C6BF04210120FFF7C2BF9B
S3151FFE15B000210220FFF7BEBF01210220FFF7BABF9F
S3151FFE15C002210846FFF7B6BF03210220FFF7B2BF6F
S3151FFE15D004210220FFF7AEBF00210320FFF7AABF9B
S3151FFE15E001210320FFF7A6BF70B586B00DF10B05CF
S3151FFE15F006460C4600950DF10E0304AA03A9032009
S3151FFE160001F07EF808B106B070BDBDF80C0011F0F2
S3151FFE1610F3F916B118B914B907E034B128B9BDF8F4
S3151FFE16200E10BDF80C0000F084FD00950DF10E03A3
S3151FFE163004AA03A9032000F081FFE3E72DE9F04387
S3151FFE164089B00DF1110507460E46009505AB06AA94
S3151FFE16500DF11201032001F053F8DFF8A88010B137
S3151FFE166009B0BDE8F083BDF8120011F0C5F917B138
S3151FFE167018B916B932E08EB380BB9DF81100B0B310
S3151FFE1680012100F005FF8146B8B10DF1160113F0D9
S3151FFE1690E1FB90B1BDF8163038F81330012B0CD193
S3151FFE16A00321484612F078FC0024E1B20122484687
S3151FFE16B0013412F052FE052CF7D1BDF8141002911B
S3151FFE16C0DDE906019DF81130BDF81220CDF80C900C
S3151FFE16D0CDE900011946002012F098FE009505ABD4
S3151FFE16E006AA0DF11201032000F028FFB7E7DDE978
S3151FFE16F00623BDF81210CDE90023012212F038FF92
S3151FFE1700ECE700BFD00201202DE9F04F91B0002378
S3151FFE17108DF82E308DF82F308DF8303005F0B8FF4E
S3151FFE1720039000F093F905F0B3FF049000F0E4F97F
S3151FFE173005F0AEFF059000F0EFF905F0A9FF069044
S3151FFE174000F08AFB05F0A4FF0DF12E0107900CA8F1
S3151FFE175000F094FB05F09CFF089005F099FF9DF89D
S3151FFE17602E308246002B00F0A480012000F0C8FC1C
S3151FFE1770804605F08DFF834605F08AFF9DF82E30C5
S3151FFE17800990A3B19DF83010012010F0DDFF4FF632
S3151FFE1790FF72114601239DF8300013F075FB4FF6BD
S3151FFE17A0FF72012311469DF8300014F0CFFE05F09F
S3151FFE17B06FFF9DF82E408146ECB100210120FFF7F9
S3151FFE17C013FF00210120FFF739FF05F061FF0DAD65
S3151FFE17D004460EAEFFF7E0F80DF132070DF13103A9
S3151FFE17E0009332462B463946032000F089FF002818
S3151FFE17F062D0FFF7C1F8012008F0A0FF022007F014
S3151FFE1800C9F805F045FF0546002000F079FC05F0F6
S3151FFE18103FFFB8F1060F0CBFA0EB050AABEB0A0A9A
S3151FFE182005F036FF05469DF82E0098B99DF8301037
S3151FFE183010F08AFF4FF6FF72114601239DF8300006
S3151FFE184013F022FB4FF6FF72012311469DF830005F
S3151FFE185014F07CFE05F01CFF9DF82E30002B3ED1AA
S3151FFE1860A0EB050905F014FF07469DF82E00B0FAFA
S3151FFE187080F001214009FFF7B7FE05F009FF054677
S3151FFE188000F088FC5F4B1B78A3B3022010F094FB7D
S3151FFE18905D4A536943F002035361FFF77DF80DF16D
S3151FFE18A02F0011F04AFA0546E8B1284611B0BDE8E9
S3151FFE18B0F08F4FF006085CE7BDF8320011F09CF87A
S3151FFE18C018B1BDF8320011F075FC0DF1310300930E
S3151FFE18D032462B463946032000F030FE87E7099B2A
S3151FFE18E0A9EB0309BEE79DF82F40002C7CD000F024
S3151FFE18F051FCDAE705F0CCFE06469DF82E00B0FA3F
S3151FFE190080F001214009FFF799FE022010F054FBDB
S3151FFE1910FFF742F83D4A136813F0800F3A4B05D086
S3151FFE19203B4951605A6942F001025A615A69394868
S3151FFE193042F002025A61384B9B6A4FEAD308414670
S3151FFE194000F0E8FE9DF82E30C8EBD60623B1C8EB95
S3151FFE1950D401324800F0DEFE3146314800F0DAFE91
S3151FFE1960049B039A2F48991AC90800F0D3FE069BBB
S3151FFE1970059A2D48991AC90800F0CCFE089B079AAE
S3151FFE19802A48991AC90800F0C5FE4FEADA01284807
S3151FFE199000F0C0FE4FEAD901264800F0BBFEE91B48
S3151FFE19A0C908254800F0B6FE0DF132020EA90DA894
S3151FFE19B006F05AFF044678B90D9B0F2B0CD802462C
S3151FFE19C001461E4800F0A6FE10230D930122234654
S3151FFE19D021461B4800F09EFE1A4B1B780BB111F0D9
S3151FFE19E0B0F9FFF779FAFCE700F0D4FB074B164A6E
S3151FFE19F05A604FF6FF729A601A6822F080021A60CA
S3151FFE1A00204653E7E94501200000214100004241DF
S3151FFE1A1002A680B49896FF1FC0CF0120B296FF1F65
S3151FFE1A20D296FF1FED96FF1F0897FF1F2397FF1FD7
S3151FFE1A303E97FF1F5997FF1F7497FF1F8F97FF1F15
S3151FFE1A40B497FF1FB500012020C528D937B5224CF4
S3151FFE1A50237813B1012010F0DFFA23783BB11F4B19
S3151FFE1A601868002302221946406816F0B3FFFEF7D8
S3151FFE1A70A1FF014610B11A4800F04CFE194B1A4D34
S3151FFE1A80D3F80035002BBCBF184B01224FF00000C8
S3151FFE1A90B8BF1A7000F01AFC2B68DA020ED52B6837
S3151FFE1AA09B060BD5124800F035FE23788BB12868AE
S3151FFE1AB010F4806018BF0F48FEF784FF237843B1EA
S3151FFE1AC00024E0B20DF10701013400F0BDFC112C1C
S3151FFE1AD0F7D1002003B030BDB4000120B8000120AD
S3151FFE1AE0C997FF1F0000824100004141D405012016
S3151FFE1AF0F997FF1FC8CF012007B5064B187828B1E7
S3151FFE1B0002A8002300F8013D11F00FF903B05DF89E
S3151FFE1B1004FB00BFE94501202DE9F04F012087B0E8
S3151FFE1B2002F0D8FC0024E0B20121013409F078FB53
S3151FFE1B30112CF8D1012011F0CDFE012012F0A2F8D2
S3151FFE1B40012011F0F1F9012012F0F0FE012014F030
S3151FFE1B50F9FF00F061FC0023ADF80E30B94B01937F
S3151FFE1B601A780646002A58D0B74B1B78002B54D13D
S3151FFE1B700DF10E010B2013F06DF928B1BDF80E20E5
S3151FFE1B80B24B022123F812100DF10D01012000F0B8
S3151FFE1B905BFC78B99DF80D3063B10DF10E014FF464
S3151FFE1BA08B7013F057F928B1BDF80E20A74B0321F2
S3151FFE1BB023F812100C2002F0E5F888B10DF10D0185
S3151FFE1BC00C2000F041FC58B90DF10E010C2013F04C
S3151FFE1BD041F928B1BDF80E209C4B012123F81210A6
S3151FFE1BE09B4D9C4F0024A0B2B3B29842C0F0A88072
S3151FFE1BF00021084600F04CFC0DF10E0113F02AF9E8
S3151FFE1C00BDF80E10914A32F8113023F002039BB233
S3151FFE1C10012B1CBF022322F81130002010F0CCF935
S3151FFE1C20002002F057FC002008F088FD0024E0B2D9
S3151FFE1C300021013409F0F4FA112CF8D1FEF79CFEAF
S3151FFE1C40FFF7A2FA002011F045FE002012F01AF847
S3151FFE1C50002011F069F9002012F068FE002014F032
S3151FFE1C6071FF00F0D9FB0023ADF81030019B1B78E6
S3151FFE1C7033B3754B1B781BBBBDF81000B0F5C17F88
S3151FFE1C80C0F09F800123734C8DF80D309DF80D30EB
S3151FFE1C90102B40F2A28006AD002425F8084D032125
S3151FFE1CA00B2012F00BF821460B2012F075F9294670
S3151FFE1CB00B2013F0CFF8BDF81020644B23F812400B
S3151FFE1CC002F01BF8002010F0A7F9012010F074F99E
S3151FFE1CD003214FF4A87012F05FF903214FF4AB7086
S3151FFE1CE012F05AF9032140F2571012F055F903214B
S3151FFE1CF04FF4B07012F050F9032140F2611012F04A
S3151FFE1D004BF9032140F2651012F046F903214FF4F9
S3151FFE1D10B17012F041F9032140F25F1012F03CF947
S3151FFE1D2003214FF4AD7012F037F9032140F25F1015
S3151FFE1D3012F032F914F0C2FC002007B0BDE8F08F96
S3151FFE1D4004A900F06FFBA8B9DDE90489010105EBC3
S3151FFE1D50010E55F801A09EF80430C3F3030B5AEA91
S3151FFE1D600B0309D19EF80CC0DEF80820CCF3030343
S3151FFE1D70134305D1013436E7D94508BFD04513D3E2
S3151FFE1D80DEF808209EF80CE012EB0A02CEF30303E0
S3151FFE1D9043EB0B0312F1FF3243F10F0303F00F0365
S3151FFE1DA0994508BF90452AD30130CFE7484601F033
S3151FFE1DB0E9FF0028DED00DF10E01484613F04AF862
S3151FFE1DC039E00DF10E020DF10D0113F035F8BDF8D8
S3151FFE1DD010300133ADF810304EE714F83320D2071A
S3151FFE1DE007D504EBC3030120997901F03F0104F0E7
S3151FFE1DF05DFA9DF80D3001338DF80D3046E7294407
S3151FFE1E008B7BB1F80C9003F01F0307EBC303C9F3DB
S3151FFE1E10091993F806A00DF10E010AF03F0A48466E
S3151FFE1E2013F018F85146012004F040FA0028A1D0FD
S3151FFE1E30B9F10C0FBAD0BDF80E20044B012123F8C1
S3151FFE1E40121097E7D4050120E9450120D002012093
S3151FFE1E5070A1FF1F20A3FF1F13B5074B187848B1AC
S3151FFE1E6002AC002304F8013D032010F0A5F820461E
S3151FFE1E7010F05FFF02B010BDE94501202DE9F043CA
S3151FFE1E8089B005460C46002006A98DF818008DF868
S3151FFE1E90190012F02DFF002840F08D800DF11E0354
S3151FFE1EA00DF11F0201930DF11D0304920093059080
S3151FFE1EB00394029007AB0DF11B020DF11A0100F000
S3151FFE1EC04BFA002877D1894A0023CDE900230DF16D
S3151FFE1ED01901874A002313F051FF044600286AD1D1
S3151FFE1EE002464FF4A87113F01FF822460B21204617
S3151FFE1EF013F01AF89DF81F300D220C21204612F002
S3151FFE1F00C3FF40F2631211460123204612F0BCFFA7
S3151FFE1F1040F2591211460123204612F0B5FF40F238
S3151FFE1F20212211460123204612F0AEFF40F20A225D
S3151FFE1F3023461146204612F0A7FF012012F0CEFDC2
S3151FFE1F40204612F0D1FD9DF81E109DF81B309DF800
S3151FFE1F501A20B1FA81F1490902919DF81D100191CE
S3151FFE1F60B3FA83F39DF81C100091B2FA82F2204653
S3151FFE1F705B095209294612F0BDFD0446D8B99DF8E4
S3151FFE1F80180010F0A3F829789DF8180001F079FEC5
S3151FFE1F900723FF224FF4B171204613F0EDFD0323F5
S3151FFE1FA022460C21204613F0E7FD032322460D2170
S3151FFE1FB0204613F0E1FD002012F090FD022012F0E4
S3151FFE1FC093FD032140F20A2011F0E6FF03210B20A9
S3151FFE1FD011F0E2FF474B1C78002C58D1DFF81C810D
S3151FFE1FE0474638F81430012B1FFA84F94FEA440688
S3151FFE1FF00FD10DF11F020DF11E01484612F01CFFF7
S3151FFE20009DF81F109DF81E0009F07CFD032111F09F
S3151FFE2010C3FFBE5B032E18D10DF11F0248460DF1FD
S3151FFE20201E0112F009FF9DF81F109DF81E0009F0F4
S3151FFE203069FD3146814611F041FE0121484611F0E8
S3151FFE2040ABFF3146484611F0A7FF0134B4F5C17FF9
S3151FFE2050C7D1002437F81430022BA0B213D10DF1CD
S3151FFE20601F020DF11E0112F0E7FE9DF81F109DF8CF
S3151FFE20701E0009F047FD0321064611F01FFE002133
S3151FFE2080304611F089FF0134B4F5C17FE2D12D78B8
S3151FFE2090194C21792268267BC1F3030352EA0301F9
S3151FFE20A008D1A068C6F30301014303D1002009B07E
S3151FFE20B0BDE8F083F10617D5A068C6F303018018A5
S3151FFE20C0594110F1FF3041F10F0101F00F01CDE92A
S3151FFE20D000010DF11F01002013F050FE20B99DF8DF
S3151FFE20E01F20294614F02CF81034D2E7FFFF0131CA
S3151FFE20F00000FE30E9450120F0A1FF1FD00201209E
S3151FFE210010B504460C2001F03DFE18B103210C202C
S3151FFE211011F042FF2046BDE8104002F0D9BE08B5B9
S3151FFE21200021012010F000F800280CBFF0203320FC
S3151FFE213008BD10B50446084611B1032111F02CFF48
S3151FFE2140072C06D8062C1ED2631E032B14D96CB978
S3151FFE215010BDA4F5FE73032BF9D80321122011F02F
S3151FFE21601BFF032140F2FB1011F016FF2046032131
S3151FFE2170BDE8104011F010BF0321122011F00CFF15
S3151FFE218003210020F0E70321122011F005FF032192
S3151FFE21900520E9E77047000070B5124B1B7886B025
S3151FFE21A005460E46DBB102A90DF107000FF02AFF09
S3151FFE21B0A8B103A807F048F8029B039301241F2327
S3151FFE21C0324603A928468DF815308DF814308DF842
S3151FFE21D016408DF8174006F045FF034B1C6006B0F0
S3151FFE21E070BD00BFB4000120C0CF01202DE9F04F06
S3151FFE21F00024DFF8C09085B027462D4BE50053F827
S3151FFE220024A009EB05030120997901F03F0104F093
S3151FFE22104DF858B1274B2B44002601939AF85A3096
S3151FFE222006F1010803F00703434509D20134112CB9
S3151FFE2230E3D117B9204800F06DFA05B0BDE8F08F5F
S3151FFE2240DAF8203003EBC8039B7903F00F03092B43
S3151FFE22502CD1019B9D795FFA86FB05F03F0503ABEB
S3151FFE226030225946284604F0C4FA039B002B1DDA7A
S3151FFE227003AB60225946284604F0BBFA039BC3F301
S3151FFE228008421AB140F27F118A4205D132462946CB
S3151FFE22900A4800F03FFA0127039B13F00C0F05D0E7
S3151FFE22A032462946064800F035FA01274646B5E767
S3151FFE22B070D3FF1F20A3FF1F9898FF1F2198FF1F94
S3151FFE22C05798FF1F08B515F005FE0000164B1B7825
S3151FFE22D013B1164A16491160164A127812B300B97F
S3151FFE22E06BB9154B154A1968914208D15968144A9C
S3151FFE22F0914204D10D4A1360DA681204DA604FF474
S3151FFE2300BE630D4A196891420CD159680D4A914216
S3151FFE231008D10D4A13600D4B0D4A1968914204BF31
S3151FFE23200C4A136000207047E9450120000001207A
S3151FFE2330C8BAFF1FD405012000FC012016EEFFC000
S3151FFE23400100A00000FD1000E005012000FD012098
S3151FFE23504F482800D80501202DE9F043DDF81CC0A3
S3151FFE2360DDF820E0099F0A9E0B9DDDF8309030B107
S3151FFE2370DFF8A080D8F80080D8F80C40046029B199
S3151FFE238024480068C08900F0010008702AB121495F
S3151FFE23900968C968C1F3404111702BB11D4A126805
S3151FFE23A0D268C2F380421A70BCF1000F06D0194BD9
S3151FFE23B01B68DB68C3F3C0438CF80030BEF1000F09
S3151FFE23C006D0144B1B68DB68C3F300538EF8003030
S3151FFE23D02FB1104B1B68DB68C3F340533B702EB106
S3151FFE23E00C4B1B68DB68C3F3805333702DB1094B4F
S3151FFE23F01B68DB68C3F3C0532B70B9F1000F06D001
S3151FFE2400044B1B68DB7B03F0010389F800300020B9
S3151FFE2410BDE8F08300000120014B1B68187A704748
S3151FFE242000000120074B1B681A7A824207D303EB73
S3151FFE24300013D3E904230020C1E9002370470320BC
S3151FFE2440704700BF00000120074B1A684AB131B121
S3151FFE2450064B185C5368C34003F001030B70002044
S3151FFE246070470620704700BFD805012008BCFF1F16
S3151FFE2470064B1B6810B53BB11C7A14709A7A027014
S3151FFE24805B7A0B70002010BD062010BDD8050120FB
S3151FFE249073B5002305460E460DF105020DF1070124
S3151FFE24A00DF106008DF80630FFF7E2FFA8B99DF87D
S3151FFE24B00630013B0D2B33D8DFE803F01313071D40
S3151FFE24C03232253232323232322740F209142EB1DF
S3151FFE24D02146284612F09CFD00B90024204602B074
S3151FFE24E070BD9DF80730EBB1012B1DD0022B14BF1B
S3151FFE24F00024FA24EBE79DF80730BBB1012B14BF6E
S3151FFE25000024EE24E3E7AA24E1E79DF807307BB11A
S3151FFE2510012B10D0022B14BF00244FF48374D6E771
S3151FFE25200024D4E7F824D2E7F924D0E7ED24CEE73A
S3151FFE253040F20314CBE74FF48274C8E72DE9F04F40
S3151FFE254085B0884603936B4BDFF8B0B11968CB682D
S3151FFE2550019303F0807A0B7A0293674B1E8891468E
S3151FFE256001EB06174FF0000C029B1FFA86FE734502
S3151FFE257009D8BCF1000F02D05F4BA3F800E007207D
S3151FFE258005B0BDE8F08F04283B8B7D8B3A7F06D1C5
S3151FFE25905BB955B9141C18BF0124DCB105E0082828
S3151FFE25A008D113B9B5F5B17FF4D0013610374FF008
S3151FFE25B0010CD9E7092805D1002BF6D140F2651487
S3151FFE25C0A542F1E70A2848D1002BEED1EC2DECD11E
S3151FFE25D0002AEAD1BCF1000F02D0474AA2F800E05A
S3151FFE25E0A8F8003001EB0613D3E9042301EB06110D
S3151FFE25F0C9E90023039A4B8B13800E9B0A7F1A7021
S3151FFE2600032824D100210846FFF742FF6FF4817489
S3151FFE261003199BB2012B02D9B0F5837F0CD1B8F8F3
S3151FFE26200030B3F58B7F07D0B3F5957F04D04FF0FF
S3151FFE263000420023C9E90023D9E90023002B08BF66
S3151FFE2640B2F5801F4CD100220023C9E900232A4A76
S3151FFE2650138801331380002092E70328BAD140F274
S3151FFE26602124A342A5F1D5058CBF01240024B5F56F
S3151FFE2670A67F88BF0124142A28BF0124B3F5FE7F37
S3151FFE268008D1BAF1000F90D1DBF8602812F0010FC6
S3151FFE26908BD182E740F2FD12934207D1BAF1000FAA
S3151FFE26A083D1DBF8602812F0020FF1E7B3F5FF7F47
S3151FFE26B008D1BAF1000F7FF478AFDBF8602812F06D
S3151FFE26C0040FE5E740F2FF1293427FF466AFBAF1BD
S3151FFE26D0000F7FF46AAFDBF8602812F0080FD7E70A
S3151FFE26E001990902B3D5002B08BFB2F1004FAED137
S3151FFE26F0A9E700BF00000120DC05012000005320D2
S3151FFE270030B4034C0025258030BCFFF717BF00BF32
S3151FFE2710DC0501200FB407B50B4B1B7853B10B4BD2
S3151FFE2720196805AA019251B1094B04991B68D8680D
S3151FFE273015F018FF03B05DF804EB04B070475A6836
S3151FFE274001325A60F6E700BFB4000120C0CF012058
S3151FFE2750B800012013B50C4602A9002321F8023D3D
S3151FFE27608DF8053012F076FB58B30DF10501BDF855
S3151FFE2770060012F0A3FC617849B92648FFF7CAFF87
S3151FFE2780012323706370A3700923E37019E0217878
S3151FFE2790012907D02048FFF7BDFF01232370637071
S3151FFE27A0A370F2E7A1788B1E062B2AD8DFE803F06B
S3151FFE27B0040B2911171D230021469DF8050015F050
S3151FFE27C067F802B010BD21469DF8050015F044F9C5
S3151FFE27D0F7E721469DF8050015F074FAF1E7214645
S3151FFE27E09DF8050014F0FCFEEBE721469DF805005B
S3151FFE27F014F078FDE5E721469DF8050014F03CFD33
S3151FFE2800DFE70648FFF786FF012323706370A37079
S3151FFE28100723BAE719BCFF1F33BCFF1F50BCFF1FA0
S3151FFE28200378052B25D8DFE803F0030F18030F20C7
S3151FFE28304278591C013201704179D2B291424270DF
S3151FFE284017D8023303707047427841790132D2B2EC
S3151FFE2850914242700DD80133F4E7002343700323E0
S3151FFE2860037043792BB90523ECE7002303704370EE
S3151FFE287043607047436A026A03481340184000309C
S3151FFE288018BF0120704700BF0000FF0F0B782DE910
S3151FFE2890F04106460C4683B16578154F4FF000682A
S3151FFE28A02378012B20D1336A05F0030248FA02F082
S3151FFE28B03B4018400CD1BDE8F08103694B600846CA
S3151FFE28C0FFF7AEFF6379082BE6D90920BDE8F08135
S3151FFE28D0043204EB850356F822205A600135204642
S3151FFE28E0EDB2FFF79DFFDBE70020BDE8F08100BFDD
S3151FFE28F01001F0FF2DE9F0410B78042B05460C461F
S3151FFE29000DD14B78426A03F003014FF400030B41CE
S3151FFE291043F4702343F0080322EA0303436223783A
S3151FFE2920032B0AD16379082B2AD82B6A1B0204D5DF
S3151FFE293063682B602046FFF773FF6678134F4FF4CD
S3151FFE294000082378042B1ED1286A06F0030248FAD4
S3151FFE295002F33840184008D16A6A22F4702222F028
S3151FFE2960080213436B62BDE8F08104EB8603204623
S3151FFE29705B6845F822300136F6B2FFF751FFE0E7F6
S3151FFE29800920BDE8F0810020BDE8F0811001F0FFAF
S3151FFE299070B50B78012B05460C46164616D8FFF763
S3151FFE29A075FF20B1002020706070606070BD2378B7
S3151FFE29B0022B0BD1A379082B01D9FEF7B1FB3046AB
S3151FFE29C0211DFFF7C7FE2046FFF72AFF2378022B9E
S3151FFE29D001D8012070BD21462846FFF78BFF002830
S3151FFE29E0E0D12378052B02BF207060706060F0E790
S3151FFE29F048B100F180030022984201D100207047A2
S3151FFE2A0000F8012BF8E703207047037803B97047D8
S3151FFE2A10437800F8013BF8E738B5054D0C1A002C34
S3151FFE2A2000DC38BD2846FFF775FE013CF7E700BF01
S3151FFE2A30A4BCFF1F2DE9F04107460E469046002413
S3151FFE2A40B44202DB2046BDE8F08157F824502846E3
S3151FFE2A50FDF79EFD29460246404616F0CAF8002897
S3151FFE2A60F0D00134ECE700002DE9F0470D4616467F
S3151FFE2A70074600287BD000221146286816F058F913
S3151FFE2A80012F044620DC402090FBF6F5022E34D0A3
S3151FFE2A90042E4FD0012E08D1DFF8DC80DFF8DC9044
S3151FFE2AA0DFF8D0A00027BD4215D1102090FBF6F609
S3151FFE2AB0B5FBF6F006FB1050002859D02D48FFF740
S3151FFE2AC029FE0020BDE8F08700226868114616F031
S3151FFE2AD02FF90546DAE73A0703D121464046FFF7A7
S3151FFE2AE019FE14F8011B48460137FFF713FE3B0775
S3151FFE2AF0D9D15046FFF70EFED5E7DFF87C80DFF80B
S3151FFE2B008090DFF870A024F001040027BD42CCD0D0
S3151FFE2B10780703D121464046FFF7FCFD34F8021B1A
S3151FFE2B2048460137FFF7F6FD7907EFD15046FFF707
S3151FFE2B30F1FDEBE7DFF84080DFF84890DFF834A0C1
S3151FFE2B4024F003040027BD42AFD0BA0703D12146A6
S3151FFE2B504046FFF7DFFD54F8041B48460137FFF7D3
S3151FFE2B60D9FDBB07EFD15046FFF7D4FDEBE7032098
S3151FFE2B70BDE8F087E70D00206DBCFF1F74BCFF1F6D
S3151FFE2B807ABCFF1F80BCFF1FF8B506460D461746CB
S3151FFE2B900024AC4201DB2046F8BD56F82410384609
S3151FFE2BA016F009F80028F6D00134F2E707B501A999
S3151FFE2BB00DF103000FF026FA40B106F061FB80F01F
S3151FFE2BC04000C0F3801003B05DF804FBFBE7000076
S3151FFE2BD073B504460D460DF1030001A90FF012FA57
S3151FFE2BE00646A0B10122214606F086FB23781B2B43
S3151FFE2BF006D0012D04D12A462146304606F068FB33
S3151FFE2C0023780D2B01D10A232370012012E00A4BD4
S3151FFE2C101B68022B08D100F035FF0D2808BF0A20BE
S3151FFE2C20207000F041FFF0E715F04EF9092303600F
S3151FFE2C304FF0FF3002B070BDC0CF01202DE9F04F1F
S3151FFE2C400023ADF5417D33AD1A4653A95A55CA54D5
S3151FFE2C500133802BF9D1BA48FFF75CFDB948BA4F4D
S3151FFE2C60DFF80C83DFF80C9373ACFFF753FD0023DD
S3151FFE2C7028462370FFF7BCFE01212046FFF7A8FF5B
S3151FFE2C802E46AA4694F800B0BBF10A0F05D0BBF13B
S3151FFE2C900D0F02D053AB9A451FD12A780D2A00F28B
S3151FFE2CA0BF8042F20143D340DE0740F1B980A748F9
S3151FFE2CB0FFF730FD0026FDF75FFEA54960221BA824
S3151FFE2CC015F0A2FA42F201472B460CA831461A7896
S3151FFE2CD0002A00F0DF801A46BBE0BBF1080F27D1A2
S3151FFE2CE0AA4521D0B2450AF1FF330CD100220AF8BC
S3151FFE2CF0012C40461E46FFF70DFDB246012120461A
S3151FFE2D00FFF766FFBEE79A465046FFF77EFE38463A
S3151FFE2D105146FFF7FFFC4046013EFFF7FBFC3146DF
S3151FFE2D205046FFF779FEE9E78A48FFF7F3FCE5E72A
S3151FFE2D30BBF17F0F06D1B245E0D09AF80030002BCB
S3151FFE2D40DCD0E1E7BBF11B0F51D100212046FFF777
S3151FFE2D503FFF23785B2BD1D100212046FFF738FF9B
S3151FFE2D602378412B1DD12846FFF742FE002353AA87
S3151FFE2D7005EB030AD25C7AB91B217748FFF7CAFC1B
S3151FFE2D807648FFF7C7FC29463846FFF7C3FC56466B
S3151FFE2D90B4E7EA540133EAE7802BFAD10DF5A67A9A
S3151FFE2DA0EAE7422B0CD159466B48FFF7B3FC6B483B
S3151FFE2DB0FFF7B0FC2846FFF71BFE2E46AA469DE7E9
S3151FFE2DC0432B08D1B24599D065480AF1010A1B214A
S3151FFE2DD0FFF7A0FC92E7442B06D1AA458ED00AF137
S3151FFE2DE0FF3A1B214846F3E7332B87D1A3E7B245AC
S3151FFE2DF00CD033469A450ED30AF1010A83F800B06A
S3151FFE2E00514638460136FFF785FC88E78AF800B03B
S3151FFE2E100AF1010ABBE713F8012C03F80129E9E7BA
S3151FFE2E209DF84C3113B153A8FFF7E2FD002342F282
S3151FFE2E300141EA5C0D2A04D821FA02F0C0073FF5CC
S3151FFE2E4036AF802B3FF433AF53A8C2540133F0E79E
S3151FFE2E50724696461EF8013B202BF9D00D2B03D842
S3151FFE2E6027FA03F3DB0702D440F826200136134662
S3151FFE2E7012F801EBBEF1200F09D0BEF1000F3FF491
S3151FFE2E8026AFBEF10A0F02D0BEF10D0FEFD119709C
S3151FFE2E9001331CE716B30C9A18211BA8FFF7CAFDB0
S3151FFE2EA00746172819D8DFE810F02800BA05BA0515
S3151FFE2EB0780087009F00A500A700A900B800C700DD
S3151FFE2EC0D600FE0018002D015801A001E2010702DF
S3151FFE2ED071025D03CF042B055C050726FDF75CFD1E
S3151FFE2EE0FFF764FE002840F09D85002E3FF4B6AE28
S3151FFE2EF0072E40F09D851B48AEE6013E092E1DDCC2
S3151FFE2F00002E5BD0002211460D9815F011FF0DF114
S3151FFE2F10340A1FFA80FB4FF0000808F10109B1457C
S3151FFE2F202ADB21465846FFF715FC0F480F4EFFF7C3
S3151FFE2F30F1FB63789F4229DB0026CFE70926E1E7EF
S3151FFE2F4086BCFF1F9EBCFF1FA6BCFF1FE70D0020F2
S3151FFE2F508895FF1FA1BCFF1FA9BCFF1F9FBCFF1F9C
S3151FFE2F60B0BCFF1F53C0FF1FBCBCFF1FC3BCFF1F50
S3151FFE2F70A3BCFF1FB6BCFF1F002211465AF8040F43
S3151FFE2F8015F0D6FE44F82800C846C6E754F82710A3
S3151FFE2F903046FFF7BFFB0137CBE7012E0AD00022D3
S3151FFE2FA011460D9815F0C4FEC0B202210FF0DCFDCE
S3151FFE2FB0064693E70220F8E7013E01D103268DE779
S3151FFE2FC0002211460D9815F0B3FE012EC7B24FF023
S3151FFE2FD0000204D011460E9815F0AAFEC2B239465B
S3151FFE2FE0002011F0C5FBE3E701220DA9701EFFF7B6
S3151FFE2FF03BFDDDE70222F8E70422F6E7022EDDDDC2
S3151FFE3000002211460D9815F093FE00220646114624
S3151FFE30100E9815F08DFE30708EE7022ECEDD002245
S3151FFE302011460D9815F084FE0022064611460E988F
S3151FFE303015F07EFE30807FE7022EBFDD0022114691
S3151FFE30400D9815F075FE0022064611460E9815F0D0
S3151FFE30506FFE306070E7032EB0DD0D9AB348112167
S3151FFE3060FFF792FDC0B21128A8D0B14B03EBC000EB
S3151FFE3070002286790E98114615F05AFE0022114639
S3151FFE308007460F9815F054FE06F03F0682B22346FA
S3151FFE3090F9B2304603F0ADFB002889D02168A5485A
S3151FFE30A0FFF738FB48E7013E022E87DD0D9A9F4844
S3151FFE30B01121FFF769FDC0B211283FF47FAF9C4B6C
S3151FFE30C003EBC000002287790E98114615F030FEDD
S3151FFE30D000225FFA80F811460F9815F029FE032E7F
S3151FFE30E007F03F071FFA80F93FF468AF002211462B
S3151FFE30F0109815F01DFE4A4603464146384603F014
S3151FFE31005AFB19E70022012E22608DF828203FF474
S3151FFE311055AF11460D9815F00BFE2146064606F0D5
S3151FFE312001FA2146304606F0FDF9024618B1314630
S3151FFE31308148FFF7EFFA0AA9304606F00BFA024658
S3151FFE314018B131467D48FFF7E5FA9DF8283022680B
S3151FFE31507B483146FFF7DEFAEEE60027013E0A9769
S3151FFE31603FF42CAF012E3FF429AF3A4639460D9850
S3151FFE317015F0DEFD3A46394606460E98714F15F096
S3151FFE3180D7FD324601460A906F48FFF7C3FA3B68E2
S3151FFE319005215A68204614F011FF0028F7D06B4808
S3151FFE31A0FFF7B8FA224602216948FFF743FC0028BB
S3151FFE31B07FF4C2AE0AAA3146664806F045F90246B4
S3151FFE31C018B131466448FFF7A5FA0AA9304606F03C
S3151FFE31D0A9F9024618B131465748FFF79BFA0A9AD4
S3151FFE31E05E483146FFF796FAA6E65D4B0FCB012EDC
S3151FFE31F084E80F0033D00D9A5A484FF4C171FFF77A
S3151FFE3200C3FC87B2B7F5C17F3FF4D8AEB846DFF829
S3151FFE32105491DFF870A1DFF870B13E4646453FF682
S3151FFE32208BAE304611F0C8FEB0B10AA9304610F07B
S3151FFE3230EBFE474502D09DF828306BB159F8261094
S3151FFE32405046FFF767FA9DF82830032B0BD854F824
S3151FFE325023104548FFF75EFA0136B6B2DEE740F2A7
S3151FFE326081180027D3E75846FFF754FAF4E73C4B7D
S3151FFE32700FCB022E84E80F007FF7A0AE0D9A3948BA
S3151FFE32804FF4C171FFF780FC86B2B6F5C17F3FF4DE
S3151FFE329095AE304611F090FE00283FF48FAE042106
S3151FFE32A00E9A2046FFF770FCC1B204293FF486AE84
S3151FFE32B0304610F05DFE3FE6002609AA08A93046F5
S3151FFE32C0069607960896099610F0F4F8099A089935
S3151FFE32D02648FFF71FFA0AAB0E2240F2631130464D
S3151FFE32E00FF069FE0A992248FFF714FA07AA06A9E4
S3151FFE32F0304610F0E7F806991E48FFF70BFA0799B6
S3151FFE33001D48FFF707FA2146304610F016F918B981
S3151FFE331021681A48FFF7FEF940F263110AAB1D2218
S3151FFE332000200FF048FE0A991548B9E6A8A3FF1F0D
S3151FFE333020A3FF1FFEBEFF1FC9BCFF1FE3BCFF1F4F
S3151FFE334003BDFF1FB800012024BDFF1FE70D002090
S3151FFE3350CCC1FF1F0000532056BDFF1F71BDFF1FAF
S3151FFE3360E895FF1F689BFF1F3317002094BDFF1FA5
S3151FFE3370BCBDFF1FD5BDFF1FEEBDFF1F07BEFF1F37
S3151FFE338020BEFF1F85BDFF1F8BBDFF1FDFF8D0E1D0
S3151FFE3390BEE80F0027460FC7012EDEF800303B6042
S3151FFE33A03FF40CAE0D9A05212046FFF743FB04287A
S3151FFE33B000F2B380DFE800F003327D858800022E1F
S3151FFE33C000F0AB80002211460E98554F15F0B0FC4B
S3151FFE33D0014606465348FFF79DF93B6805215A6885
S3151FFE33E00AA814F0EBFD0028F7D04F48FFF792F915
S3151FFE33F00AAA02214D48FFF71DFB00287FF49CAD4C
S3151FFE3400304605F003FA0646002E3FF467AD05F07B
S3151FFE3410A9FA01464648FFF77DF95FE500230DF140
S3151FFE3420150208A907A8079308938DF8153005F00E
S3151FFE34301BFA98B907993F4801F00F03C1F30B1208
S3151FFE3440C1F30541FFF766F99DF8153013B13A48EA
S3151FFE3450FFF760F908993948FFF75CF905F05CF844
S3151FFE346001463748FFF756F907F04CFA014635482D
S3151FFE3470FFF750F9079B042B7FF65EAD0AAB09AA31
S3151FFE348006A90DF1160005F027FA00287FF454ADA4
S3151FFE3490BDF816102C48FFF73DF9BDF818102B483E
S3151FFE34A0FFF738F909992A48FFF734F90A99294887
S3151FFE34B0F6E5002211460E9815F006FD05F096F963
S3151FFE34C03AE505F023FA37E5022E26D000221146ED
S3151FFE34D00E98134E15F02CFC014609901E48FFF759
S3151FFE34E019F9336805215A680AA814F067FD0028E2
S3151FFE34F0F7D00D48FFF70EF90AAA02210B48FFF770
S3151FFE350099FA00287FF418AD09A805F0E7FA09997C
S3151FFE351006461248FFF7FEF876E7032677E700BF53
S3151FFE3520B800012039BEFF1FE70D0020CCC1FF1FCB
S3151FFE353050BFFF1F60BEFF1F83BEFF1FADBDFF1F18
S3151FFE35408CBEFF1FA2BEFF1FB8BEFF1FD2BEFF1F30
S3151FFE3550ECBEFF1F06BFFF1F20BFFF1F3EBFFF1F85
S3151FFE3560F895FF1FCF4B0A93012ECF4B0B933FF4BC
S3151FFE357025AD0D9A02210AA8FFF75CFA064600281A
S3151FFE358000F02D8101287FF419ADC84BC84A5A6039
S3151FFE35904FF6FF729A601A6822F080021A604FF089
S3151FFE35A0FF3000230022E11841F822000132072ACC
S3151FFE35B0FAD11C33B3F59A7FF4D1BE4E4FF00008F5
S3151FFE35C0374636F8189048460FF0A2FE18B103216B
S3151FFE35D0484610F0E1FC08F10108B8F10B0FF0D1D7
S3151FFE35E0B548B64EDFF8F882DFF8F892FFF792F885
S3151FFE35F04FF0000A37F81A000FF08AFE48B156F848
S3151FFE36002AB040465946FFF785F859464846FFF702
S3151FFE361081F80AF1010ABAF10B0FEBD1A848DFF8C0
S3151FFE3620A092DFF8C4A2DFF8AC82FFF773F8A548B5
S3151FFE3630FFF770F8002637F816B058460FF068FEEB
S3151FFE3640002800F0D380072E00F3CD80002309A9A2
S3151FFE36505846ADF824308DF816308DF8183011F017
S3151FFE3660F9FB06AA0DF11601BDF8240011F0E4FBC5
S3151FFE36709DF8163008EBC30307AA9879032100F0BD
S3151FFE36803F0003F05AFE9DF81630BDF81C1008EBDE
S3151FFE3690C30308AA98790DF1150300F03F0002F047
S3151FFE36A0FFF99DF91530BDF92020BDF81C1086487F
S3151FFE36B0FFF730F801360B2EBDD103F0EDFF834A1F
S3151FFE36C0002312184B41CDE902234FF0000B0726AC
S3151FFE36D0DFF8E0A1BBFBF6F6C6EBC606ABEB0606AE
S3151FFE36E000273AF8179048460FF012FE002840F0C2
S3151FFE36F0848001370B2FF4D159467548DFF8B4A1E4
S3151FFE3700DFF8E891FFF706F80BF1010B00263AF8F2
S3151FFE3710168040460FF0FCFD002839D01C2202FB06
S3151FFE372006424FF0FF37002352F8231001338F4214
S3151FFE373028BF0F46072BF7D1072E71DC002309A9D9
S3151FFE37404046ADF824308DF818308DF81C3011F038
S3151FFE375081FB07AA06A9BDF8240011F06DFB9DF893
S3151FFE376018305C4A02EBC3033946987908AA0DF155
S3151FFE3770160300F03F0002F093F99DF91630BDF9CE
S3151FFE378020205148002BB8BF5B423946FEF7C2FFC9
S3151FFE37900A2E02D14A48FEF7BDFF01360B2EB6D1C1
S3151FFE37A0FDF7FAF803F078FFDDE90223994208BF19
S3151FFE37B0904203D2FFF7FAF90028F3D0FDF7DCF8A3
S3151FFE37C0FFF7F4F9DDE90267404A002392197B41B0
S3151FFE37D0CDE9022300283FF47AAFFFF7ADBBFEF714
S3151FFE37E005FDFFF77BBB5046FEF794FF0A2E7FF4BF
S3151FFE37F061AF4846FEF78EFF5CE7C7EBC708B044CE
S3151FFE380004EB880800224346494610460FF0D3FBB9
S3151FFE381000283FF46EAFFDF7BFF8FDF7ADF8F1E7F1
S3151FFE38200DF1160700224146009708AB10460FF012
S3151FFE3830EDFD97F90020BDF92010002AB8BF5242B0
S3151FFE38404846FEF767FFA3E7013E3FF4B7AB022EDE
S3151FFE38507FF4B4AB002211460D9815F069FA0022CB
S3151FFE38605FFA80F811460E9815F062FA0746404633
S3151FFE387007F0CCF800F0F003402B07D0102805D038
S3151FFE38801548FEF747FF0B26FFF728BBFFB2234659
S3151FFE38900022394640460FF0BFFA064640B30F4890
S3151FFE38A0EFE700BFB0C0FF1FB4C0FF1F00004241BD
S3151FFE38B020C528D988C1FF1F62BFFF1FA0C1FF1FDA
S3151FFE38C0E70D00206EB7FF1F78BFFF1F40420F0098
S3151FFE38D002D6FF1F20A3FF1F99BFFF1FB0BFFF1FEB
S3151FFE38E068BFFF1F70BFFF1F84BFFF1F8DBFFF1F58
S3151FFE38F023785A483A464146FEF70CFFFFF7EEBAC3
S3151FFE3900013E3FF45BAB032E7FF458AB00221146FC
S3151FFE39100D9815F00DFA002211465FFA80F80E98E3
S3151FFE392015F006FA0022114607460F9815F000FA03
S3151FFE39302070404607F06AF800F0F003402B01D0D6
S3151FFE394010289DD1FFB223460122394640460FF06D
S3151FFE395063FA06460028A2D1237841483A464146D5
S3151FFE3960CAE7022E7FF42AAB002211460D9815F0E8
S3151FFE3970DFF95FFA80F8404607F048F800F0F000DE
S3151FFE3980402801D037487CE74D23237055236370AB
S3151FFE39905D23A3706523E3706D2323717523637106
S3151FFE39A07D23A37185238DF828308B238DF829302F
S3151FFE39B091238DF82A302C482C4F97238DF82B30C8
S3151FFE39C0FEF7A8FE0126A119012309AA11F8011C5B
S3151FFE39D040460FF0F7F9C8B1DFF8A09001270AA9F4
S3151FFE39E03944012309AA11F8011C40460FF0EAF9D2
S3151FFE39F0064600287FF453AF3946099A48460137D3
S3151FFE3A00FEF788FE052FEAD1FFF768BA3146099AF7
S3151FFE3A1038460136FEF77EFE082ED4D1DCE70C268D
S3151FFE3A20FFF75CBA00212046FFF7D2F8FFF758BA18
S3151FFE3A30032E02D10E48FFF70FB9062E02D10D48EF
S3151FFE3A40FFF70AB90C2E05D031460B48FEF762FE6C
S3151FFE3A50FFF704B90DF5417DBDE8F08FC1BFFF1F0E
S3151FFE3A60E7BFFF1F0DC0FF1F2DC0FF1F3AC0FF1F61
S3151FFE3A7065C0FF1F84C0FF1F9DC0FF1F46C0FF1FDF
S3151FFE3A8070477047054B064A0649586B516010F042
S3151FFE3A90FF00FAD000225A63704700BFC0CF012035
S3151FFE3AA00000424102A680B4044B0549186305482F
S3151FFE3AB01A6B02B970474860FAE700BFC0CF0120F4
S3151FFE3AC00000424102A680B4F7B507460C460DF12B
S3151FFE3AD0030001A915460EF095FA0646B8B1B7B909
S3151FFE3AE02A46214605F008FC21462A46304605F0A1
S3151FFE3AF0EFFB23460A211A1B954202DC284603B01A
S3151FFE3B00F0BD1A780D2A08BF19700133F3E70B4B68
S3151FFE3B101B68022B0CD16619B442EFD0FFF7B2FF1A
S3151FFE3B200D2808BF0A2004F8010BFFF7BDFFF3E7B8
S3151FFE3B30034B09221A604FF0FF35DFE7C0CF012086
S3151FFE3B40606C01202DE9F3410D2307460C460DF14E
S3151FFE3B50030001A915468DF802300EF053FA0646EC
S3151FFE3B60E0B1013F012F19D804EB0508444527464E
S3151FFE3B7003D1284602B0BDE8F0813B780A2B04F13B
S3151FFE3B80010405D101220DF10201304605F0A0FB0D
S3151FFE3B9001223946304605F09BFBE7E70D4B1B68B6
S3151FFE3BA0022B11D10C4E4FF40012C6F814256719BD
S3151FFE3BB0BC4204D14FF40013C6F81835D9E714F8E2
S3151FFE3BC0010BFFF771FFF3E7044B09221A604FF053
S3151FFE3BD0FF35CEE7C0CF012000008241606C012079
S3151FFE3BE008B5042203490120FFF7ACFFFDF798FA3B
S3151FFE3BF0FEE700BFEFC0FF1F01207047024B1622D4
S3151FFE3C001A604FF0FF307047606C01200C4B0D4958
S3151FFE3C101A6810B502B919601A680B4C1044411A7E
S3151FFE3C20A1420ADD0F2209490220FFF78BFF084B2F
S3151FFE3C300C221A604FF0FF3010BD1860104610BDE3
S3151FFE3C40E405012000D0012000100000D4C1FF1F93
S3151FFE3C50606C01204FF0FF30704700207047000058
S3151FFE3C60022881BF034B092200201A6098BF01203C
S3151FFE3C70704700BF606C01204FF400534B6000205D
S3151FFE3C80704737B501230C46054640F2F91240F23E
S3151FFE3C90F511002011F0F8F801234FF4017240F2DE
S3151FFE3CA00321002011F0F0F801234FF4AA7240F20F
S3151FFE3CB05111002011F0E8F800237D221146184607
S3151FFE3CC012F044FC002380221146184612F03EFCD9
S3151FFE3CD0002387228321184612F038FC0123224631
S3151FFE3CE029460093002011F049FC1D222146002083
S3151FFE3CF003B0BDE830400FF0C9B930B587B006AD89
S3151FFE3D000024022005F8014D10F0E8FE012010F0F8
S3151FFE3D10EBFE01231A460193009329460294204681
S3151FFE3D2010F0E8FE9DF8171040F2F312204611F030
S3151FFE3D30F1FC9DF8171040F20722204611F0EAFC0F
S3151FFE3D409DF817104FF40272204611F0E3FC9DF802
S3151FFE3D5017104FF4FA72204611F0DCFC40F20222D5
S3151FFE3D609DF81710204611F0D5FC032140F2F310E3
S3151FFE3D7010F012F91E229DF8171020460FF086F935
S3151FFE3D8007B030BD10B504460EF0CCF940F2FB135A
S3151FFE3D909C420FD17E4BD3F8603803F00F030F2BD7
S3151FFE3DA008BF0020902C2ED1794BD3F8703813F014
S3151FFE3DB0010F30E0B4F5FE7F1AD1754BD3F860388C
S3151FFE3DC013F0010F18BF002040F24B139C424BD13C
S3151FFE3DD06F4BD3F8703813F4007F18BF0020982C52
S3151FFE3DE040F081806A4BD3F8803813F0400F65E0B0
S3151FFE3DF040F2FD139C421CD1654BD3F8603813F07D
S3151FFE3E00020F18BF0020B4F5A37FDDD1604BD3F898
S3151FFE3E10703813F4807F18BF002040F203139C42B4
S3151FFE3E2038D15B4BD3F8803813F4807F18BF002040
S3151FFE3E3034E0B4F5FF7F05D1554BD3F8603813F048
S3151FFE3E40040FBFE740F2FF139C42ABD1504BD3F892
S3151FFE3E50603813F0080F18BF0020B4F5007F0FD18E
S3151FFE3E604B4BD3F88038A2E7B4F5077FF5D1484B05
S3151FFE3E70D3F87038C3F303330F2B08BF0020CCE7EC
S3151FFE3E80B4F58B7F13D1424BD3F8803813F0020F54
S3151FFE3E9018BF002040F205139C42C2D0B4F5827FA4
S3151FFE3EA029D13B4BD3F8803813F4007F06E0AA2CAA
S3151FFE3EB095D1374BD3F8803813F0100F18BF00205B
S3151FFE3EC040F289139C4228D1314BD3F8903813F018
S3151FFE3ED0020F18BF0020692C32D12D4BD3F8A03804
S3151FFE3EE013F0010F2AE0A92C97D1294BD3F880385E
S3151FFE3EF013F0200FE2E7B4F5837F05D1244BD3F8E9
S3151FFE3F00803813F4806FD9E7FB2C10D1204BD3F8E2
S3151FFE3F10803813F4805F18BF002040F28D139C4239
S3151FFE3F2017D11B4BD3F8903813F0040F06E0FC2C69
S3151FFE3F3007D1174BD3F8803813F4005F18BF002044
S3151FFE3F4010BDFD2CBCD1124BD3F8803813F4804F15
S3151FFE3F50F4E740F291139C4205D10D4BD3F89038EE
S3151FFE3F6013F0200FEAE7B4F5CA7F05D1084BD3F845
S3151FFE3F70903813F0400FE1E70C2CACD1044BD3F86D
S3151FFE3F809038C3F303230F2B08BF002010BD00BFBD
S3151FFE3F9000005320014B1868704700BF1807012009
S3151FFE3FA0054BD3F87008000900F00C00A0F10C03B6
S3151FFE3FB058425841704700BF00005320162808B5C7
S3151FFE3FC004D1FFF7EDFF18B901230B60022008BDD0
S3151FFE3FD00223FAE773B5424E0446355D013DEDB247
S3151FFE3FE035556DBB262C35D02CD8192C32D020D862
S3151FFE3FF0132C2FD0162C2DD0012C21D1394B4FF43B
S3151FFE40000062C3F80825384B0095224620461B68DA
S3151FFE40100C2101F023FE20468DE830002B4603229D
S3151FFE40200D2101F0C9FD2A460321204601F088FD18
S3151FFE403010E01B2C0ED030D3242C16D0252C4AD0A4
S3151FFE404002B070BD332C05D006D8282C2BD040D3FA
S3151FFE4050322CF5D1204621E0392CFBD001D8382C45
S3151FFE4060F7E73A2CF6D03B2CF3E720462B462A469B
S3151FFE40700C21009501F0F2FD4FF444132046082251
S3151FFE4080294602F098FB20462A460B2101F086FEA2
S3151FFE4090204602F075FB28249FE71A2002B0BDE8D2
S3151FFE40A0704002F06DBB114B009520461B68012226
S3151FFE40B00C2101F0D3FD0E4B009520461B680122F5
S3151FFE40C00F2101F0CBFD2A460B21204601F066FE8D
S3151FFE40D0C0E72720E2E72420FFF77CFFBAE700BFF1
S3151FFE40E0E805012000008241700601208C07012091
S3151FFE40F09007012037B5264B1C5C013CE4B20546F2
S3151FFE41001C54002C41D1262816D027283DD12246E5
S3151FFE41101B2101F0DFFD082212212846012302F092
S3151FFE41204AFB22461621284601F038FE282003B0F8
S3151FFE4130BDE83040FFF74EBF22461B2101F0CAFDE8
S3151FFE414022461C21284601F0C5FD20460DF0E2FF42
S3151FFE41500123032814BF0222224600931821234659
S3151FFE41602846019401F028FD01230822122126204C
S3151FFE417002F021FB0822102126204FF4441302F0E1
S3151FFE41801AFB002216212620CEE703B030BD00BF44
S3151FFE41903006012030B5684A135C0133DBB285B0A9
S3151FFE41A00025012B04460395135456D826285ED0A8
S3151FFE41B055D819285BD049D8132800F0B580162884
S3151FFE41C055D0012849D102F0CFFA5C4BD3F8003502
S3151FFE41D0002B1BDB5A4DD5F8402E2046D2B20A21A4
S3151FFE41E001F005FE41F61003EC587CB123020DD5F6
S3151FFE41F003AB20220021012002F0FBFA24F4000368
S3151FFE4200202200210120039302F0D5FA0A21012064
S3151FFE421001F00AFE012201241046032101F090FC43
S3151FFE4220234603220D2120460194009401F0C4FC6F
S3151FFE4230444B00941B6822460C21204601F00EFDBE
S3151FFE42403E4B4FF40062C3F8042506E01B280ED032
S3151FFE425042D3242817D0252861D005B030BD332878
S3151FFE426005D007D8282839D057D33228F5D102F0E2
S3151FFE42707BFAF2E73928FAD001D83828F6E73A282A
S3151FFE4280F5D03B28F2E72820FFF784FF204602F0F1
S3151FFE42906BFA0B21204601F065FD38B92046012237
S3151FFE42A00B2101F07BFD0A20FCF76AFF0A20FCF7B3
S3151FFE42B067FF4FF4441304220021242002F07BFAE9
S3151FFE42C01920FCF75DFF0123009300231A460C21DC
S3151FFE42D0242001F0C3FCC0E71A20C8E702F044FA07
S3151FFE42E00B21204601F03EFD38B9204601220B2147
S3151FFE42F001F054FD0A20FCF743FF0124124B0094E4
S3151FFE43001B6822460C21282001F0A8FC0F4B0094A7
S3151FFE43101B6822460F212820DBE72720A7E724203C
S3151FFE4320FFF738FF2046A2E702F01EFA2A460A21A9
S3151FFE4330204601F03BFD90E7E80501200000824183
S3151FFE434000005320700601208C07012090070120D4
S3151FFE435013B53A4A135C0133DBB2012B04461354E1
S3151FFE436069D8262827D0272865D12820FFF712FFD0
S3151FFE4370204602F013FA1621204601F0F3FC002810
S3151FFE438059D101221621204601F008FD0A20FCF70D
S3151FFE4390F7FE0422122140F20113204602F00BFA09
S3151FFE43A00A20FCF7EDFE01221B21204602B0BDE8C6
S3151FFE43B0104001F08FBC2820FFF7ECFE204602F0CE
S3151FFE43C0EDF91621204601F0CDFC38B92046012213
S3151FFE43D0162101F0E3FC0A20FCF7D2FE4FF444132C
S3151FFE43E004221021262002F0E6F91920FCF7C8FE4A
S3151FFE43F0042240F201131221262002F0DCF90A20C4
S3151FFE4400FCF7BEFE00200DF085FE01230328019357
S3151FFE441000934FF0000314BF02221A4618212620CE
S3151FFE442001F0CAFB01221B21262001F053FC0122AB
S3151FFE44301C212620BAE702B010BD00BF30060120A0
S3151FFE444008B50120FFF7A6FE0120FFF781FF2820F2
S3151FFE4450FFF7A0FE2820FFF77BFF2420FFF79AFE1B
S3151FFE44602420FFF775FF2720FFF794FE2720FFF76F
S3151FFE44706FFF2620FFF78EFE2620FFF769FFC82057
S3151FFE4480BDE80840FCF77CBE08B518B1BDE808407C
S3151FFE4490FFF7D6BF2620FFF72DFE2620FFF79AFD34
S3151FFE44A02720FFF727FE2720FFF794FD2420FFF77F
S3151FFE44B021FE2420FFF78EFD2820FFF71BFE282056
S3151FFE44C0FFF788FD0120FFF715FE0120BDE8084016
S3151FFE44D0FFF780BD2DE9F3470546002800F08580CE
S3151FFE44E00020434C04F056FA2946204604F0ABFF43
S3151FFE44F0002D40F09A8141F610033E4AE1581160A5
S3151FFE4500E3583D4A04F5C15403F4000313602368C0
S3151FFE4510980718BF2768236814BF07F003070327EA
S3151FFE452013F0300F1CBF2368C3F30118236808BF9F
S3151FFE45304FF0030813F4407F18BF2668236814BF85
S3151FFE4540C6F30126022613F4406F18BF256823689B
S3151FFE455014BFC5F38125032513F4405F18BF2368D7
S3151FFE45604146384614BFC3F301394FF0010901F026
S3151FFE4570BFFA33462A464146384601F0C3FA494634
S3151FFE45802846324601F0CEFA23681C4AC3F302437D
S3151FFE4590136023681A4AC3F3C24313602368194A7A
S3151FFE45A0C3F382531360184B1A6812F0380F18BFE5
S3151FFE45B018681A6814BFC0F3C2000220510716BF3F
S3151FFE45C01968032101F0070101F088FA01F0A0F92D
S3151FFE45D0074BD3F870381B091A0727D003F00C02B6
S3151FFE45E00C2A0A4A16D10A4B1FE0012079E700BFA3
S3151FFE45F0000053202C06012088070120700601208B
S3151FFE46008C07012090070120001853201807012050
S3151FFE461000452C1603F00303022BE4D0032B00F0F8
S3151FFE46200781012B40F006818A4B13608A4BD3F814
S3151FFE46300035002B1DDB894CD4F8401E0122090EC6
S3151FFE4640242001F071FB272002F0A8F8162127204F
S3151FFE465001F095FB024628B9D4F8601E2720C9B281
S3151FFE466001F062FBD4F8601E0022090E262001F01F
S3151FFE46705BFB7B4CFFF7E4FE4FF00008A2464FF0B4
S3151FFE468003090026002708F5FE700DF1020180B210
S3151FFE469010F0E0FB84F8038008F10108BDF8023034
S3151FFE46A023800025B8F1040F84F802902571C4E912
S3151FFE46B0026704F11004E6D10DF1020140F2FB1070
S3151FFE46C010F0C8FB674BBDF80220674C1A8083F8B3
S3151FFE46D00280C3F804A083F808900DF102010F2093
S3151FFE46E010F0B8FBBDF802302380C4E902672571BE
S3151FFE46F06571A571E5710DF1020140F2291010F0E9
S3151FFE4700A9FBBDF802306380584C594961600522EA
S3151FFE47102282584A6261584A5849A261584AE26142
S3151FFE4720A160012257492280E16022865649574AD7
S3151FFE4730616262635649574AA162A2635649574A46
S3151FFE4740574FE162E26329462A46564DA4F820904A
S3151FFE47504FF0030C96463E46002300296CD1E954C2
S3151FFE4760D01828440233082B80F801E0F5D1BB1878
S3151FFE47700131A8180329586002F10802ECD101A9DC
S3151FFE47800DF101000DF03EFC28B1474B98421EBFAE
S3151FFE479002232B706B700DF102014FF4A87010F0FF
S3151FFE47A059FBBDF8023033800DF102014FF48B70B9
S3151FFE47B010F050FBBDF802303C4D33810DF1020166
S3151FFE47C040F2FB1010F046FBBDF802303382042286
S3151FFE47D003236E600DF10201002612202A722B7032
S3151FFE47E0EC6085F8283085F8296010F033FBBDF89C
S3151FFE47F002302B820DF1020140F2411010F02AFB0E
S3151FFE4800BDF802306B8200220023C5E90623C5E9E7
S3151FFE481008232C46E568002335442A885F1CDBB235
S3151FFE482093420DD31036402EF4D102B0BDE8F08769
S3151FFE48301F4BFAE60023F8E6E81800F802C08FE7DA
S3151FFE4840A9686A6801EB430132F8130010F002FBF8
S3151FFE48503B46E2E780B2E60E00008241000053208F
S3151FFE4860800601207406012008070120300701205B
S3151FFE48707600012078000120200701201E07012057
S3151FFE48808A00012089000120820001207400012078
S3151FFE48902A0701201C0701208F0001208800012006
S3151FFE48A0F00601207007012000002241C0060120EC
S3151FFE48B00046C323012804D024280ED048F2200325
S3151FFE48C004E0084BD3F8A03EC3F3890303F03F0071
S3151FFE48D09B0103F4704318437047024BD3F8B03E57
S3151FFE48E0F2E700BF000053200020704719281ED094
S3151FFE48F026281ED01B281ED033281ED016281ED0B3
S3151FFE49001A281ED027281ED028281ED024281ED09F
S3151FFE491025281ED03A281ED032281ED013281ED078
S3151FFE492039281ED038280CBF0F20FF2070470120C4
S3151FFE493070470220704703207047042070470520EA
S3151FFE494070470620704707207047082070470920CA
S3151FFE495070470A2070470B2070470C2070470D20AA
S3151FFE496070470E2070471A280CD003D8162809D078
S3151FFE49700120704726280AD02828F9D1881E18BF7D
S3151FFE498001207047012994BF0020012070474B1E4E
S3151FFE49905842584170470000012909D11B2807D1EB
S3151FFE49A0044B187928B19879C31E5842584170474F
S3151FFE49B00020704708070120002303700B600123A8
S3151FFE49C013707047C38843F60F721A420CBF01203D
S3151FFE49D00020704730B54A4D0FCD91B06C460FC4BF
S3151FFE49E00FCD0FC40FCD0FC495E80F0084E80F003F
S3151FFE49F000245DF824000321013404F0C1FD0C2CB4
S3151FFE4A00F7D1404D2B7E10AA03F07C0313440021E1
S3151FFE4A1053F8404C40F6FF722046142304F0B4FDB3
S3151FFE4A202046152340F6FF72012104F0ADFD022339
S3151FFE4A301946204640F6FB7204F0A6FD03231946CF
S3151FFE4A40204640F6FB7204F09FFD2046112340F6DA
S3151FFE4A50FF72042104F098FD95F8283010AA03F082
S3151FFE4A607C031344002153F8404C40F6FF72062385
S3151FFE4A70204604F089FD20460F22002104F08EFDFC
S3151FFE4A801623204640F6FF72012104F07DFD2046C7
S3151FFE4A900F22012104F082FD2623204640F6FF72D7
S3151FFE4AA0022104F071FD20460F22022104F076FD3D
S3151FFE4AB02723204640F6FF72032104F065FD20469C
S3151FFE4AC00F22032104F06AFD0723204640F6F772E4
S3151FFE4AD0042104F059FD20460F22042104F05EFD39
S3151FFE4AE02046172340F6F772052104F04DFD0F22CF
S3151FFE4AF00521204611B0BDE8304004F04FBD00BF72
S3151FFE4B000C96FF1F20A3FF1F652938B51D4617D11B
S3151FFE4B100C4A0D4B02EBC000D3F8502E847904F0DD
S3151FFE4B203F04120E0A21204601F061F935B101221A
S3151FFE4B3020460A21BDE8384001F038B92A46F7E774
S3151FFE4B4038BD00BF20A3FF1F00005320222803D01D
S3151FFE4B50232804D0242070470D230B70FAE70E235B
S3151FFE4B60FBE7704707B50246022A4FF00000019089
S3151FFE4B7003D0032A13D007201EE001AB40F2FB1120
S3151FFE4B800FF054FB0E4B019AAAB1D96891422CBF66
S3151FFE4B900122002211460C224A4398580CE001AB13
S3151FFE4BA0042290210FF042FB019B13B9054B1B6894
S3151FFE4BB00193054BE7E7186803B05DF804FB00BFDA
S3151FFE4BC004000120180701205C00012070B4F2B119
S3151FFE4BD0022821D003282CD0072019E014605C6818
S3151FFE4BE099B1DA6891420ED91A6891420DD85B685F
S3151FFE4BF09C420FD08D4298BF0022214688BF0122BC
S3151FFE4C0070BC0DF045BF3346F1E70023F0E70320E6
S3151FFE4C1070BC70470020FBE7084B1568DC68A54291
S3151FFE4C2003F10C0607D91C68A542D7D81A46546845
S3151FFE4C30D6E7034BF1E73246F9E700BF0400012032
S3151FFE4C405C000120F7B504461E460D4681B9871E38
S3151FFE4C50012F0DD80DF0DAFE56B12046FFF782FF63
S3151FFE4C600728019004D001AA29462046FFF7AEFF6A
S3151FFE4C7003B0F0BD70470000012810B414D10E4CCE
S3151FFE4C8041F61003E258E35803F4000312B90B4A28
S3151FFE4C904FF400031A420CD022EA0303C9B22022A4
S3151FFE4CA05DF8044B01F087BD054B1A68054B1B6863
S3151FFE4CB0ECE75DF8044B70470000532040C08003AD
S3151FFE4CC02C060120880701202DE9F341114DEE68C0
S3151FFE4CD00023074606EB00161C46328803F1010821
S3151FFE4CE0DBB2934208D3032F02D10CB195F82840AD
S3151FFE4CF0204602B0BDE8F081B2680DF1070132F819
S3151FFE4D0013000FF081F99DF807309C4238BF1C46F1
S3151FFE4D104346E2E7C006012008B54FF48062012331
S3151FFE4D200021242001F0F7FB0021242001F053FC73
S3151FFE4D3010F42010F8D1264B264A1860136813F07C
S3151FFE4D40011FFBD1244A2548136823F00103136074
S3151FFE4D50234A136843F02003136040F2373140F2B3
S3151FFE4D60232203680B409342FBD11E4B4FF000528A
S3151FFE4D701A601D4A136843F0030313601B4B1C4A3C
S3151FFE4D801A60A3F5BE531B4A196811601A6842F0D2
S3151FFE4D907F4242F4FE421A601A6822F47F021A60AC
S3151FFE4DA0154A136843F018031360D2F8803143F097
S3151FFE4DB00103C2F880310C32136843F002031360FD
S3151FFE4DC0A2F2A442136843F00053136008BD00BF4E
S3151FFE4DD09004005CFC03005C5002015C0400005C56
S3151FFE4DE03000005C0400015C2000015CDC17015CE6
S3151FFE4DF000402601280601200005015C224A136891
S3151FFE4E0023F000531360214B1A68214B1A60214A67
S3151FFE4E10136823F018031360D2F8803123F00103C1
S3151FFE4E20C2F880310C32136823F002031360A2F21C
S3151FFE4E30EC42136823F002031360174B12221A600B
S3151FFE4E4013221A60154A136803F00303032BFAD1C4
S3151FFE4E50134A1449136823F02003136040F23732B6
S3151FFE4E600B681340012BFBD14FF0B8431B6803F0B1
S3151FFE4E703F03202B01BF0C4A136843F00103136047
S3151FFE4E800A4B01221A6070476800015C2806012042
S3151FFE4E901C00015C0005015C0400015C3000015C26
S3151FFE4EA03000005C0400005C5002015C9004005C54
S3151FFE4EB0064A0323136002F54032136002F5803261
S3151FFE4EC0136002F500321360536070470000095CE1
S3151FFE4ED037B5054600240C208DF8074010F062F802
S3151FFE4EE008B320460DF107020C210FF06FF804469A
S3151FFE4EF038B99DF807303BB9FFF7DAFF01200DF0F1
S3151FFE4F0023FF204603B030BD084B1A6840F23733E5
S3151FFE4F101A420CBF0146012128460DF0E3FB00286D
S3151FFE4F20EAD00446EDE70624EBE700BF0400005C6B
S3151FFE4F30012806D142F21073074AD058C0B240B2BA
S3151FFE4F407047242803BF42F21073034AD05800202D
S3151FFE4F5008BFC0F30720F2E700005320132830B521
S3151FFE4F6002D1102908BF03210F4C42F2D073E55818
S3151FFE4F70002D17DAE3580D4C205CC3F315030144CD
S3151FFE4F8023FA01F111F0010F09490A4B18BF0B460F
S3151FFE4F90012053F8041F914203D80130C0B20728DF
S3151FFE4FA0F7D130BD034BF3E700005320E4C1FF1FCB
S3151FFE4FB03C0001201C0001202DE9F7430024DFF8E9
S3151FFE4FC0408046002546D8F804301A19185B5768E4
S3151FFE4FD00DF107010FF018F89DF8073007EB0609CC
S3151FFE4FE0012B8CBFBB5D99F8013008349D4238BF3B
S3151FFE4FF01D46182CE7D1284603B0BDE8F08300BF37
S3151FFE5000C006012013B50E4C63680DF10701188902
S3151FFE50100EF0FAFF9DF80730012B02D9094B1879BE
S3151FFE502058B163680DF10701188A0EF0EDFF9DF862
S3151FFE5030070001288CBF0020012002B010BD00BF53
S3151FFE5040C006012008070120F7B5164604460D4681
S3151FFE50501F4A2BB392F8293053B1E3685B5D032BCE
S3151FFE506033D9A36833F8150031460EF081FF2CE0C5
S3151FFE507083680FB20DF1070133F817000EF0C4FF58
S3151FFE5080E3685A5D032A9CBF9DF807205A559DF873
S3151FFE50900730B34219D9A368314633F81700E4E740
S3151FFE50A092F82930002BD8D083680FB20DF1070175
S3151FFE50B033F817000EF0A8FFE3685B5D032B98BF5E
S3151FFE50C01E469DF80730B342E5D303B0F0BD00BFC1
S3151FFE50D0C00601202DE9F8431C4D1D4B0701EC1997
S3151FFE50E0461C94F80480D3F80490F6B2B8F1000F6C
S3151FFE50F016D0A37939F83600022B0CD900210EF0F3
S3151FFE510037FF002160880EF033FFEB1901225A711B
S3151FFE51100020BDE8F88301210EF02AFF0121F1E7E9
S3151FFE51206379002BF4D0032139F836000EF020FFE9
S3151FFE5130032160880EF01CFFD4E90223012139F8F2
S3151FFE5140360006F039FB84F80580E1E708070120E3
S3151FFE5150C006012030B5A8B90C4B9C788C4211D9DC
S3151FFE51605B68DDE9034503EB0113C3E902455AB14B
S3151FFE5170074B00240025C3E90645CCB20025C3E92B
S3151FFE5180084530BD032030BD104630BD74060120D4
S3151FFE5190C006012030B514461D4618B9024BC3E999
S3151FFE51A0024530BD032030BD0807012010B9024B52
S3151FFE51B019727047032070477406012030B548B92F
S3151FFE51C0054CA5788D4205D9646804EB01118A70DA
S3151FFE51D00B7130BD032030BD7406012010B520B9FA
S3151FFE51E0034C2171A271E37110BD032010BD00BFD8
S3151FFE51F008070120094B70B5DD68002405F110066E
S3151FFE52002B8AE1B28B4204F1010401D8002070BD46
S3151FFE5210002303223046FFF717FFF1E7C0060120E2
S3151FFE522008B5044B03EB0010032140880EF0A0FEC9
S3151FFE5230002008BD0807012038B50020FFF744FDF2
S3151FFE5240012808D8074BDD6800242B88E1B28B4264
S3151FFE525004F1010400D838BD002303222846FFF7B8
S3151FFE5260F3FEF2E7C006012030B50A4A0A4C0123B7
S3151FFE527000204FF4B27112F83350ED0706D501FB2D
S3151FFE5280034595F84D51A84238BF28460133112BC9
S3151FFE5290F1D130BD20A3FF1F8C080120144B1B68C4
S3151FFE52A09A0314D4D90314D45A0314D4D90414D488
S3151FFE52B09A0514D4190314D40E4A9A4313D0DA024C
S3151FFE52C013D413F4001F0CBF0020022070470520C5
S3151FFE52D07047072070470620704708207047042036
S3151FFE52E0704701207047092070470A20704700BF8C
S3151FFE52F00000414120001000F0B4174A174C1378E6
S3151FFE5300174D184E11214FF4B2770133DBB2112B15
S3151FFE531028BF002314F83300C00716D555F82300FF
S3151FFE532090F85A0000F0180018280ED107FB0360EC
S3151FFE533090F84D01012808D9137004EBC303F0BC86
S3151FFE5340987900F03F0001F051BF013911F0FF01BE
S3151FFE5350DBD11370F0BC70479807012020A3FF1FF7
S3151FFE536070D3FF1F8C080120014B1860704700BFCA
S3151FFE537094070120154B70B51C68F4B100250C2649
S3151FFE5380E3689D420DD3A268616854F8140B04F0BE
S3151FFE539075F9002223460C211046BDE870400EF01B
S3151FFE53A045BF206906FB05F1431841585A689868A0
S3151FFE53B0920012F029FF0135E2E70548FDF7AAF92B
S3151FFE53C02046BDE870400DF0F7BB00BF94070120D5
S3151FFE53D024C2FF1F124B70B51C68FCB1002204F1DC
S3151FFE53E014030C2110460EF0F7FE94E8070004F096
S3151FFE53F01BFD00250C26E3689D4203D3BDE87040C6
S3151FFE5400FFF756BD206906FB05F3C118C0584A684B
S3151FFE54108968920012F0F8FE0135ECE770BD00BFF9
S3151FFE54209407012003282DE9F04707460D4614462B
S3151FFE54309946274E0DD101290BD800200DF084FC6D
S3151FFE544096F82830012B02D915BBFFF793FF86F876
S3151FFE54502850F2683B0102EB03084CB332F803A057
S3151FFE54600AF1FF34E4B2A24515D8032F0ED1012D42
S3151FFE54700CD996F82830012B22D1FFF7DDFEFFF758
S3151FFE5480BDFC01200DF060FC86F82850BDE8F087B4
S3151FFE5490FFF742FCDBE721464B462A464046FFF70F
S3151FFE54A0D3FD013CDEE74B462A464046FFF7CCFDC1
S3151FFE54B0B8F80030E1B28B4204F10104F3D8D4E709
S3151FFE54C0002BDED1FFF7B8FEFFF784FFD9E700BF3B
S3151FFE54D0C00601202DE9F843134E4FEAC0080024EB
S3151FFE54E03746E5B22846FFF7EFFB81462846FFF70C
S3151FFE54F063FD736843445B6813F81410814238BF1B
