S01B00006275696C645F6D783871785F62302F736366772E73726563C1
S113000000F00120410000005100000051000000F8
S11300105100000051000000510000005100000098
S11300205100000051000000510000005100000088
S11300305100000051000000510000005100000078
S11300400448D0F800D04168084700BF00BF00BF93
S1130050FFF7FEBF0000FE1F0000000000000000CC
S1130060000000000000000000000000000000008C
S1130070000000000000000000000000000000007C
S10500807047C3
S10500827047C1
S11300840000000000000000000000000000000068
S11300940000000000000000000000000000000058
S11300A40000000000000000000000000000000048
S11300B40000000000000000000000000000000038
S9030000FC
